:020000040800F2
:1000000000000120190400086104000869040008C8
:100010006F040008770400087F0400080000000057
:10002000000000000000000000000000870400083D
:100030008F040008000000009704000821E0000879
:10004000A70400089F040008AF040008A5D000081A
:10005000B7040008BF040008E9EE000805EF000837
:1000600021EF00083DEF000859EF0008A1C2000889
:10007000B1C20008C1C20008D1C20008E1C2000834
:10008000F1C2000801C300082DB80008C704000829
:10009000CF040008D7040008DF04000875EF00084B
:1000A000E7040008E9E50008EF040008F704000889
:1000B00091E50008BDE5000839E50008FF040008E7
:1000C00011CA0008070500081DCA0008C9D90008A0
:1000D000D9D9000821ED00082DED000839ED000800
:1000E00001F00008DDD000080F0500080000000046
:1000F0000000000000000000000000000000000000
:10010000000000000000000065E50008E9D90008D3
:10011000170500081F050008270500082F0500081F
:1001200011C3000821C3000831C3000841C30008FF
:1001300051C30008370500083F05000847050008BF
:100140004F050008570500085F050008670500080F
:10015000000000000000000000000000000000009F
:10016000000000000000000000000000000000008F
:10017000000000000000000000000000000000007F
:10018000000000000000000000000000000000006F
:10019000000000000000000000000000000000005F
:1001A000000000000000000000000000000000004F
:1001B000000000000000000000000000000000003F
:1001C000000000000000000000000000000000002F
:1001D000000000000000000000000000000000001F
:0401E0005FF8E0F1F3
:1001E40010B5054C237833B9044B13B10448AFF36D
:1001F40000800123237010BD680900200000000066
:10020400E0080108084B10B51BB108480849AFF3D2
:1002140000800848036803B910BD074B002BFBD0CE
:10022400BDE81040184700BF00000000E0080108C6
:100234006C09002000000020000000000CF0E2BF68
:100244002DE9F04F6B4B8BB0DB695B0708D50FF0E2
:1002540037FE0DF04FFD0446002840F0C8800AE048
:1002640044F620600EF042FF02900EF01DFF0028BD
:1002740040F0BD80EBE7604B604D1A68DFF88C916D
:1002840042F400221A609A69032742F03C029A6100
:10029400A3F5843318604FF0010858604FF0100A3A
:1002A400C9F80000DFF868B1C9F8040003A92860A0
:1002B400686028464FF40056ADF80C808DF80E7037
:1002C4008DF80FA00FF056FDC5F81080284603A93D
:1002D400ADF80C608DF80E708DF80FA00FF04AFD8C
:1002E4002E615846042603A9ADF80C608DF80E70F3
:1002F4008DF80FA00FF03EFDCBF8106048464FF08C
:10030400800B03A9ADF80CB08DF80E708DF80FA01A
:100314000FF030FDC9F810B04FF40073284603A95C
:10032400ADF80C3001938DF80E708DF80FA00FF01E
:1003340021FD019B03A92B6148464023ADF80C30F5
:100344008DF80E708DF80F600FF014FD20460FF03D
:100354009FFB022120460DF099FB404641460FF0D9
:1003640011FF274841460FF053FD0BF023FF0028EF
:100374003DD10DF0B7FD002839D1224A136843EA74
:10038400080313600CF0CEFD044680BB01F0ACFA08
:1003940068B321461C2203A810F05AFA4FF4E13343
:1003A400039320464FF48073CDF824B008930EF0E5
:1003B4000FFA03A904460EF015FA98B90FF060F984
:1003C40009F0DCFC30B120460F490EF06DFB02F061
:1003D4004BFA0CE04FF4006009F0E4FC0028F2D181
:1003E400314600E0022114B120460EF053FB4920AF
:1003F4000DF044FD002002400010024000100140B6
:100404000004300010E000E010090108000C014075
:1004140000140140FFF712FF002103E00A4B5B5870
:100424004350043109480A4B42189A42F6D3094A08
:1004340002E0002342F8043B074B9A42F9D30DF043
:10044400F1FCFFF7FDFE7047881B01080000002047
:10045400680900206809002098E7002008B50220F8
:100464000DF00CFD03200DF009FD08B504200DF07E
:1004740005FD08B505200DF001FD08B506200DF0B9
:10048400FDFC08B507200DF0F9FC08B508200DF0B7
:10049400F5FC08B509200DF0F1FC08B50C200DF0B1
:1004A400EDFC08B50B200DF0E9FC08B50D200DF0AE
:1004B400E5FC08B50E200DF0E1FC08B510200DF0A8
:1004C400DDFC08B51E200DF0D9FC08B51F200DF089
:1004D400D5FC08B51F200DF0D1FC08B521200DF086
:1004E400CDFC08B523200DF0C9FC08B525200DF07E
:1004F400C5FC08B526200DF0C1FC08B52A200DF076
:10050400BDFC08B52C200DF0B9FC08B535200DF064
:10051400B5FC08B538200DF0B1FC08B539200DF054
:10052400ADFC08B53A200DF0A9FC08B53B200DF050
:10053400A5FC08B541200DF0A1FC08B542200DF042
:100544009DFC08B543200DF099FC08B544200DF03E
:1005540095FC08B545200DF091FC08B546200DF03A
:100564008DFC08B547200DF089FC00000B4A10B53E
:1005740053691B681B68186843688168083303441F
:100584001C1D5B6814615B7A0144A4EB83039360D4
:1005940063680C311160536010BD00BFF8E60020A1
:1005A40010F0020F7FB50A4B0DD01B6901228DF8A4
:1005B4000420DA6801A802921B689B88ADF80C300D
:1005C40001F020FA01E09B68186807B05DF804FBAD
:1005D400F8E60020B0F5007F38BF4FF4007070B526
:1005E4000C300D46002100F08BFB044620B93D2061
:1005F40001F096F9204670BD114B21685B691868BB
:100604004FF0FF3302684B6000230A608B60046084
:100614009DB11468A800A268121AA26022440C3288
:1006240001F10C04AB4205DA52F8236044F823606C
:100634000133F7E78B6818448860012070BD00BF60
:10064400F8E6002003681B685A6808321344181D32
:100654005B685B7AA0EB830070470000094B10B520
:10066400186968B15A691268126811681A6801F148
:100674000C04121B8A605A68426000221A6101202D
:1006840010BD00BFF8E60020FFF770BF2DE9F04F62
:100694004FF00C0A0AFB02FA9B460B680646D3F895
:1006A400109087B009EB0A077D7A387AAD0005EB24
:1006B40080001030B0F5007F38BF4FF400708846DA
:1006C4000C30002100F01CFB044620B93D2001F051
:1006D40027F9204652E030682168026859F80A3048
:1006E4000A6005F108020A4404605760C2F81080E9
:1006F400101DD8F80020126B134443604FF0FF33F1
:100704008360109B4D6010358D601BB9FB7ADA074E
:100714000DD42DE03068FFF795FF00235BF823200C
:1007240040F82320109A01339342F7D1EEE79B0758
:100734000CD50123CDF808808DF80430BB8801A8BE
:10074400ADF80C3001F05EF9044601E0DBF800403E
:100754001CB9392001F0E4F80FE02046314600F0DE
:10076400E9FB28B9336803229C6483F8242004E05D
:100774003368012083F8240000E0012007B0BDE8BD
:10078400F08F000010B50C4C0023236163691B68D3
:10079400986A10F0080004D0BDE81040002000F072
:1007A400C1BC014600F056FF0307F5D46069BDE8FB
:1007B400104000F07DBF00BFF8E60020144A38B5B1
:1007C40053691D68136928689B6801685C1C0CD117
:1007D4000C6800F0A7FA2C601CB9BDE83840FFF79C
:1007E400D1BFBDE83840FFF7C1BE94684B6001F14A
:1007F4000C0008330B44201A8860191D5B681161D2
:100804005B7A1460A1EB830393604B68536038BD3B
:10081400F8E6002008B5064B1B691B68D87AC307A5
:1008240005D5FFF7BDFEBDE8084000F0A9BB08BD33
:10083400F8E6002008B5FFF7EDFFBDE80840FFF734
:10084400BDBFFFF7BBBF000000232DE9F0430468E0
:100854000B60234B5A69904203D11A690AB15B6851
:100864005360204A236816680025002B36D01F6881
:100874007B685A1C30D008333B440A68181DC4688E
:1008840001EBC20254605C68D1F80090B4F80680B1
:10089400A2F80880D0F80CC0D3F804E0B44503D122
:1008A40040F27633984501D02DB100E001259EF940
:1008B4000B30002B0EDBDCF8003044681B6BDEF8D9
:1008C40000E0E31ACEEB0303538109F10103082B83
:1008D4000B6003D08368CCE73B68C6E7BDE8F083D0
:1008E400F8E6002028E7002030B593B00C4601A9B3
:1008F400FFF7AAFF019900293AD02268022012F8D2
:10090400083C01EB810143F0300302F8083C01F09C
:10091400B3FB30B3036802AA10330021019D0533F1
:10092400A94202F108021ADA52F8085C01312D6872
:1009340095F8355003F8055C32F8045C03F8045C60
:1009440032F8045C2D0A03F8035C32F8025C03F805
:10095400025C32F8025C2D0A03F8015CDEE72368CE
:100964001861226812F8083C23F0300302F8083CAE
:1009740013B030BD4FF6FF7208B5064B06480C2184
:100984009A8301F073FC0548042101F06FFC0120F7
:1009940008BD00BFF8E6002018E70020ECE60020C0
:1009A400F8B500F10803072B0E4605D913F007022A
:1009B40003D01030831A00E00823184A1468002278
:1009C40054B325689D4202D222466468F8E70AB30C
:1009D400111DEF1A072F606808D9E218E75050601C
:1009E4000A60516841B90E490A6005E0086063680D
:1009F4001BB90B4B1A6000E01D46330604D5204694
:100A040000212A460FF024FF2670236865F31F2374
:100A1400236001E00149DCE72046F8BD8C09002091
:100A240088090020002330B50360104B1A68824205
:100A34000F4A38BF18601368191D884215D15968C8
:100A4400181D09B90346FAE713600A4A116861B12F
:100A5400094D08682A680C18944201BF1A1B131D1B
:100A6400C0181B1904BF08602B6030BD900900201A
:100A7400840900208809002070E00020F8B5204E89
:100A8400204F34683D683246AC4209D0231F33609E
:100A94001E681EB1AB4201D0043BF9E713601FE0AE
:100AA400DFF868E0DEF800C0644503D3231F3B6031
:100AB400336015E0144B1D680DB900241DE02B684C
:100AC400EA186245F9D10B2BF7D9A4F1040C043BC5
:100AD400043AC7F800C0C6F800C02B60CEF8002066
:100AE400002CEAD0FFF75CFF054620B92046FFF74B
:100AF40099FF2C4601E0083525602046F8BD00BF6B
:100B040090090020840900208809002070E000205A
:100B140030B51D4C50F8081C2368C1F31721A0F10F
:100B2400080240F8081C5BB1934209D25C681CB10E
:100B3400944201D22346F9E740F8044C5A6003E09A
:100B440040F8043C2260002350F8044C5518A54298
:100B540001BF5458091940F8081C696808BF40F8D7
:100B6400041C63B119685C18A24201BF50F8082C38
:100B7400891850F8042C196004BF5A601A46536847
:100B84000BB9024B1A6030BD8C0900208809002083
:100B9400F8B504460E1A10680F46A042154603D154
:100BA4002A6832442A60F8BD214632460FF035FEE9
:100BB400084B28681968084A8A42F1D952F804395E
:100BC400002BF9D0A342F7D3BB423EBF1B1B1B181B
:100BD4005360F1E78409002068E0002070B50E46F8
:100BE40015460446B44234D22378590607D503F097
:100BF400100223F0600343EA420323700BE01A0758
:100C040009D5844203D921462A46FFF7C1FF20684B
:100C140004EB102019E023785B0716D5844203D92E
:100C240021462A46FFF7B4FF2B68A34209D2E21AF1
:100C34001A6000225A606A680AB1536000E0AB602F
:100C44006B60206804EB10202860236804EB1324F5
:100C5400C8E7864205D931462A46BDE87040FFF709
:100C640097BF70BD78B1094B1B6898420AD9084AEE
:100C7400904207D243409B0704D10068003018BF5C
:100C8400012000E00020C0B2704700BF84090020AA
:100C94006CE000200C4B0D4A0D49136000225A6091
:100CA4000C4A13604DF2D462981808604FF0FF317B
:100CB4001A609950084A03F55643D0331360074A23
:100CC40001201360704700BF980900208C090020A0
:100CD40070E0002088090020900900208409002089
:100CE4004DF2D86070470000044B00201B681BB114
:100CF4001A685B681044FAE7704700BF8C0900204B
:100D040038B50D46044660B1FFF7B8FE48B904F1A2
:100D1400080001F0D5FF20462946BDE83840FFF71A
:100D2400ADBE38BD10B504460068FFF7F1FE20469D
:100D3400BDE81040FFF776BE02682DE9F04152F895
:100D4400083C01F10805072D06468846C3F317231E
:100D540006D915F0070104D008F110056D1A00E05A
:100D64000825AB423CD012F8087C404607F07F07C8
:100D74003946FFF715FE044640B9284601F0A0FFA6
:100D840040463946FFF70CFE044660B32746D6F8C2
:100D9400008018F8083C414607F8083B58F8082C2E
:100DA4002568C2F31722C5F31725AA42B4BF083A2F
:100DB400A5F1080238460FF025FD18F9083C002B70
:100DC4000ADA58F8082CC2F31722AA4204DAA01847
:100DD4000021AA1A0FF03CFD3068FFF799FE376036
:100DE4000120BDE8F081BDE8F081F8B5036807464D
:100DF40053F8084C13F8085CC4F31724204605F094
:100E04007F01FFF77DFF064660B1006825F07F058E
:100E140010F8083C39681D4300F8085CA4F1080286
:100E24000FF0F0FC3046F8BDF8B505460E461746FF
:100E3400084C094B20461B689C420AD954F80439D3
:100E4400002BF6D013F8083C3340BB42F1D1A8473D
:100E5400EFE7F8BD68E0002084090020F0B52E4AD1
:100E64002E4D2F482E68D2F800E004682D4985B035
:100E740071450B460FD951F80479002FF8D017F8B3
:100E8400087C07F04807082FF2D100279C424F60E6
:100E940038BF1C46ECE7DEF80430046053B913682D
:100EA4005968181D09B90346FAE71360CEEB03032A
:100EB40033442B601C4C1D4821680023814201905F
:100EC4000293039305D0994208BF314601AAFFF764
:100ED40085FE22685AB192E881001044002F14BFA5
:100EE4003946314601AAFFF779FE3A46F2E7296806
:100EF400019B8B4208D2C91A83E80600029A0AB100
:100F0400536000E003930293029B1BB1039A226097
:100F1400074A136005B0F0BD8409002070E000208A
:100F24009009002068E000208C0900209809002026
:100F34008809002003681A6832B18A4208D15A68C5
:100F4400012001325A6070470120196058607047CF
:100F54000020704710B5044620B9BDE81040392080
:100F640000F0DEBC054B5969FFF7E4FF20B92046C9
:100F7400BDE8104000F05EBB10BD00BFF8E60020E5
:100F840008B9392006E00268074B11685B69994289
:100F940002D0302000F0C4BC5368013B536013B945
:100FA400136000F085B97047F8E6002010B508B961
:100FB400392006E003681A68054B5B699A4204D03D
:100FC400302000F0ADFC002010BD012010BD00BF9A
:100FD400F8E60020026810B50223936153680549BE
:100FE4001B681B69013BDBB251F83340146241F8C2
:100FF400330010BD80E00020104B30B51D460921A0
:10100400DA6C824202BF0268126ADA649A6C904215
:1010140004D103681B6A45F8313030BD3AB1146815
:10102400226A8242FAD113681B6A236230BD0139F5
:101034004A1CA3F10803E3D130BD00BF80E00020C7
:10104400836A23F0240383620023C3628364C3643A
:10105400036543657047000008B501F069FD431C52
:101064001FBF044A1368191D11601ABF18600120BC
:10107400002008BDF8E6002001207047F8B50646B8
:101084000F460924074B53F8345035B128463946E6
:10109400B04728B12B681D6AF7E714F1FF34F1D289
:1010A400F8BD00BF80E0002010B50922074B53F8BB
:1010B40032302BB119684C68844204D00B6AF8E7CB
:1010C40012F1FF32F2D2184610BD00BF80E00020BA
:1010D400026838B512F8083C044643F0300302F8BD
:1010E400083C58208021FFF70BFE054670B10368C9
:1010F400002283F824205C60FFF76CFF226812F85A
:10110400083C23F0300302F8083C09E022683D2043
:1011140012F8083C23F0300302F8083C00F000FC0D
:10112400284638BD10B50446FFF798FA034B5A69B0
:10113400126882F8244000225A6110BDF8E60020AB
:1011440038B50A4C0546636913B10120FFF7EAFF7D
:101154006561FFF799FA2B68DB699847054608B97A
:10116400FFF77CFA00236361284638BDF8E60020C7
:1011740070B504680646A169EFF3108372B60E4A8F
:10118400DB07516000D462B60C4B5A691D46964287
:101194000DD012B10120FFF7C5FF94F824306E6121
:1011A400042B01D0FFF770FA022384F82430204680
:1011B400BDE87040FFF744BF50060020F8E6002069
:1011C40009230020074A52F8332032B1126892F8FA
:1011D400241001B10130126AF7E713F1FF33F1D2A1
:1011E400704700BF80E000200A4BD0B55B6906461B
:1011F4000F461C684AB10BF0C7FDA36AC4E902019B
:10120400C4E9046743F0040302E0A36A23F004037F
:10121400A362D0BDF8E600200B4B10B55B691C68D7
:10122400A06A10F004000ED00BF0AEFDD4E9022346
:10123400801A61EB0301D4E90423994208BF904268
:101244002CBF0120002010BDF8E6002038B5124B59
:101254005A691D461468A26A12F0030F04D0A36CE5
:101264001B681A6822B905E0FFF7D6FF0028F6D1FB
:10127400002038BD69691960A16B5960A36AA26432
:101284009B0702D5352000F04BFBA36A012023F015
:101294000303A36238BD00BFF8E60020034B5B697B
:1012A4001B68986AC0F38000704700BFF8E600200E
:1012B40010B509230C4A52F8331089B10C6894F81C
:1012C4002420032A0AD1A26C824207D1FFF732FEFE
:1012D4000023A364012384F8243010BD216AECE7C1
:1012E40013F1FF33E6D210BD80E0002038B5044688
:1012F4000D46FFF75BFEE0B109220E4B53F8323086
:10130400A3B11B6893F8241004290DD1D8690A49A4
:10131400884209D1996CA14206D1986AC10703D4C5
:1013240040F00100986225B11B6AE9E712F1FF322F
:10133400E3D238BD80E000205112000808B510B196
:10134400FFF7B2FE01E0044B586920B10268936ACA
:1013540043F00203936208BDF8E6002010B50C4682
:1013640010B1FFF7A1FE01E0064B586940B10268D5
:10137400936A03F00200C0B214B123F00203936233
:1013840010BD00BFF8E6002008B500200121FFF7DA
:10139400E5FF18B9BDE80840FFF73EBF352000F06F
:1013A400BFFA012008BD000070B500200121FFF73D
:1013B400D5FF0D4C054638B1352000F0B1FA63690C
:1013C40000221B689A640DE063691E68B06CFFF725
:1013D4006BFE08B9B06405E0FFF71EFF18B163693E
:1013E4001B689D64012070BDF8E6002010B518B19B
:1013F400FFF75AFE044601E0054B5C693CB1204608
:10140400FFF7FAFD2046BDE81040FFF7E3BD10BD2D
:10141400F8E60020024B1868003018BF012070471E
:101424007CE000203A4B2DE9F0411B6813F00B0FD0
:101434002FD013F0020102D100B3DC071ED5354CC6
:10144400626932B1156895F82450022D01D1104615
:101454001AE099B1304C2068036893F82430042BC7
:1014640002D00020BDE8F081FFF76AFE0028F8D022
:101474002068FFF77DFE2068BDE8F081190708D5D4
:10148400244B58691C4608B1FFF772FE6069BDE839
:10149400F08110B11F4C606918B9204D0927A84686
:1014A4001CE003689B6A5A06F7D5EDE7EE6C002E44
:1014B40008BF1E463446236893F824305A1E012A76
:1014C40015D9042B0ED023681C6A04B9AC6CB44241
:1014D400F1D1013F7B1CA5F1080513D0AB6C002BA7
:1014E400E4D1F6E72046FFF72BFE0028EBD0236873
:1014F40008EBC7071B6A7B602046FFF739FE2046CE
:10150400BDE8F081034B5C69002CAAD0F4E700BF6E
:1015140078E00020F8E6002074E0002080E000205D
:1015240008B5084B5B691B68D86193F82430042B19
:1015340007D00420FFF7F6FDBDE808400020FFF7C0
:1015440071BF08BDF8E6002010B50446804720B9F5
:101554002046BDE81040FFF7E3BF034BBDE8104051
:101564005B691868FFF76CBDF8E60020084908B508
:1015740049690968886452EA030104D0104619468F
:101584000122FFF731FEBDE808400248FFF7C8BF5B
:10159400F8E60020AD130008D0B5044616461F46F1
:1015A400FFF704FDC8B10D4B20465B691A68236838
:1015B40094645968916300221A605A60FFF778FEB8
:1015C40056EA070304D0304639460122FFF70CFEE1
:1015D400BDE8D0400248FFF7A3BFD0BDF8E6002025
:1015E4005112000808B5FFF737FD40B9044B054810
:1015F4005A69054B1A60BDE80840FFF791BF08BD62
:10160400F8E600205D1000087CE0002008B550EAF0
:10161400010307D00122FFF7E7FDBDE808400448B5
:10162400FFF77EBF0020BDE80840FFF7FBBE00BF08
:101634008D13000808B5064B5B691B68986403208A
:10164400FFF770FDBDE808400020FFF7EBBE00BFC8
:10165400F8E6002030B5134B10B300F0020500F09B
:1016640004041A6871B1104318601DB10E4A51691F
:101674000E4A1160A4B10C4A526911688A6A42F098
:1016840040020CE022EA000018600DB1074A116024
:1016940034B1054A526911688A6A22F040028A62AA
:1016A400186830BD78E00020F8E6002074E00020DF
:1016B40010B50446FFF7A0FC0B4B5A69A24205D1B2
:1016C40000224FF6FF705A6100F02AF92046FFF716
:1016D40029FB064B1B68A34205D1BDE8104002203C
:1016E4000021FFF7B7BF10BDF8E6002074E000202A
:1016F400084B5B691A68936A990603D540B923F0CD
:10170400200302E028B143F02003936201207047D4
:1017140000207047F8E60020034B5B691B68986A59
:10172400C0F34010704700BFF8E600202DE9F042F6
:1017340004460F46002383604FF0FF324FF0FF331F
:10174400C0E900234FF00909274B53F83950002D05
:1017540040D01FB1254B5B699D4238D02E6896F866
:101764002430002B33D0022B20D9042B2FD1B26A82
:1017740011062CD4F3691E498B4208D01D498B42B3
:1017840005D01D498B4202D01C498B4227D15307F7
:101794001DD50BF0F9FAD6E90223801A61EB030197
:1017A400D6E90423994208BF904205D300220023BE
:1017B400C4E90023BDE8F082101A63EB0101D4E907
:1017C4000023994208BF904201D2C4E900012B686A
:1017D4001D6ABCE719F1FF39B6D2BDE8F082A368EF
:1017E4000133A360D3E700BF80E00020F8E60020C7
:1017F4008D13000851120008AD1300085D10000895
:101804001FB50E4B1B681B0714D4FFF7D9FC90B10E
:101814000020FFF707FE014650B96846FFF786FF30
:10182400DDE900231343F3D0684601F055F9EFE7EF
:10183400012000E0002005B05DF804FB78E0002002
:1018440001280AD10C4B0A681B689A4212D1888875
:10185400A0F13C0250425041704702280AD1064B85
:101864000A681B689A4205D18888A0F10C03584283
:10187400584170470020704728E700207FB50B6867
:10188400026805469A420E46838804D189888B42B1
:1018940001D1012026E01268926832F813404FF615
:1018A400FF739C4207D100201CE09DF805300134F1
:1018B400A4B2002BF7D02B6831461A68D36853F8CA
:1018C400240001909DF8043002A8123352F823300A
:1018D4000293BDF80630ADF80C30FFF7CFFF0028B7
:1018E400E3D0D6E704B070BD08B5FFF7D3F908B963
:1018F400002008BD03F037F90028F9D0FFF7BCFB3E
:101904000028F5D001F0DAF90028F1D001F0EAF866
:101914000028EDD0FFF72EF8003018BF012008BDD5
:10192400024A034B126898839A61704728E70020A3
:10193400F8E600202DE9F3410B68074693F834508C
:101944000C4615F0010501D0012554E02E461B6B11
:1019540093F82080F1B2414514D2204603F060F997
:10196400014618B94A20FFF7DBFF44E0236801363B
:1019740006F1120243F822003846FFF7DBFF002885
:10198400E8D138E0226892F8343043F0010382F859
:10199400343023681E6BB08C50B180008021FFF777
:1019A400AFF918B93D20FFF7BBFF24E023681862A4
:1019B400F08C38B180008021FFF7A2F90028F1D023
:1019C40023685862B6F82C800026B2B24245BBD2D6
:1019D4000023009338462146FEF758FE58B1384696
:1019E400FFF7C6FB01F03CFB054B01369A8B4FF623
:1019F400FF739A42E9D0284602B0BDE8F08100BFE7
:101A0400F8E600202DE9F041444C06466568002DB7
:101A140059D023680021D3F800E04FF0FF32A942E7
:101A24004DDA5EF82100002842D003681F7C002FA5
:101A34003ED0022F02D9032F0BD039E0B3F818C0DF
:101A44003789BC4530D15F697368FF1A7B427B419B
:101A54002BE093F820C0377CBC4525D193F814C003
:101A64003779674520D117B1022F1DD808E01B7EB6
:101A7400377AC7EB0308D8F1000343EB08030FE000
:101A8400B3F81CC0B789BC4508D19B69B768C7EBDC
:101A9400030CDCF1000343EB0C0300E00023DBB296
:101AA400003318BF012300E00023DBB2002B32D146
:101AB400571C02D1002808BF0A460131AFE7531C66
:101AC40008D1690000E00821144800F0D4FB10B9E3
:101AD400BDE8F081154624208921FFF711F98046DD
:101AE40028B93D20FFF71CFF4046BDE8F0810C4BB0
:101AF40007681B68103747F8083C272327F8043C7D
:101B04000FCE0FC74046336822683B60A3685D432D
:101B1400136843F80580BDE8F08100BFECE60020BF
:101B240028E7002042F6C66398423DD017D841F218
:101B3400225398423CD006D8B0F5F46F48D140F215
:101B440082238B803FE041F63B63984224D042F6E7
:101B5400C60398423CD140F27F238B8033E046F6A3
:101B64007B6398421CD00BD844F20F33984227D0A1
:101B740046F6BA5398422BD140F27E238B8022E062
:101B840047F2DC63984217D04CF2387398421FD165
:101B94004FF420738B8016E040F281238B8012E097
:101BA40040F283238B800EE040F286238B800AE090
:101BB40040F285238B8006E04FF421738B8002E092
:101BC40040F287238B80034B01201B680B60704716
:101BD4000020704728E70020F7B502AC04E90300B1
:101BE400009DBDF804402E68706800EBC4004FF6F9
:101BF400FF748188A14213D0D6F810E00C2404FBB2
:101C040001E4E77A17F0020F06D1A488944203D1C5
:101C14001D60998001200EE001317C0689B2EDD46B
:101C24004FF6FF7144888C4204D04178123156F843
:101C34002150D8E7002003B0F0BD1346026810B568
:101C44000C4612F8081C01F00B01092905D02046A6
:101C5400BDE810401946FFF765BF083292E803005B
:101C64002246FFF7B9FF003018BF012010BD30B580
:101C7400044687B018B93920FFF752FE23E0FFF776
:101C840013FA18B13220FFF74BFE1CE0204640F651
:101C94001C3104AAFFF7D1FF18B94A20FFF740FE10
:101CA40011E02046FFF714FA054660B101230093C2
:101CB400BDF81420049903AB0394FEF7E7FC10B9B4
:101CC4002846FFF7F5FC07B030BDF0B517460646C9
:101CD40087B08DE80300BDF80430DC0033685B682E
:101CE4002344DD884FF6FF739D4213D132680020F0
:101CF40053681C44638861784FF6FF74A3421FD075
:101D0400123152F82160E8E79DF80D300135ADB28B
:101D1400002BEBD032683946D36853F82500039082
:101D24009DF80C3004A8123352F823300493BDF804
:101D34000E30ADF81430FFF7A1FD0028E4D00120E7
:101D440007B0F0BD022830B507D1022A29D10846D0
:101D5400BDE830401946FFF791BD012821D1012A81
:101D640015D108688A881C68A04202D199889142DA
:101D740015D04FF6FF750068416801EBC2014A882F
:101D84004978AA420DD0123150F82100ECE7022A1A
:101D940007D103C9BDE830401A46FFF796BF0120BA
:101DA40030BD002030BD10B5044600780B46032832
:101DB4000A7827D1032A1FD1217C1A7C914213D19E
:101DC40021791A7931B96ABB187A227A121A5042E7
:101DD400504110BD104642B30846083304F10801CF
:101DE400BDE81040FFF7AEBF1ED9BDE8104018791A
:101DF40003F10801FFF724BD1046BDE8104004318B
:101E0400FFF71EBD30B982B908792279131A5842F6
:101E1400584110BD032A07D0211D0433BDE81040EA
:101E2400FFF790BF084610BD002010BD70B50468D0
:101E34000D4614F8083C03F00B03A3F10A02012A2F
:101E440021D803220B2B0A7007D101230B74002322
:101E54000B7103681B7B0B7270BD237B032B08D1B2
:101E64000E460C340FCC0FC62368336001332B7439
:101E740070BD01220A740B710835103494E8030014
:101E840085E8030070BD012305F8043B083494E899
:101E9400030085E8030070BD037810B5032B1AD145
:101EA400027C012A0DD104791CB9037A0C700B71E0
:101EB40012E00B46083003F8044B03C883E8030020
:101EC4000AE00B70013A0B1D04300A7407C883E85A
:101ED4000700012200E00022104610BD10B50C4698
:101EE40086B038B101A9FFF7A1FF01A82146FFF789
:101EF4005AFF00E0012006B010BD7FB50123029116
:101F040001A98DF80430ADF80C20FFF7E7FF07B006
:101F14005DF804FB70B5036805465B680E4613F86C
:101F24003100892180001030FEF7EAFE044618B122
:101F340003689E819D6002E03D20FFF7F1FC20468E
:101F440070BD0000F0B585B0054602F014FF00280E
:101F54005BD0334802F00AFE324C2060002856D091
:101F6400284602F003FE03682F4D1B6B06465F8C68
:101F74002B6863B920683D21FFF7CCFF286030B19E
:101F8400026812F8083C43F0300302F8083C2B685E
:101F9400002B3ED020684721FFF7BCFF00283AD031
:101FA400036805241C61FFF793F80546A0B30121DB
:101FB4000820FFF74FFB31462846FFF7BBFC0820FB
:101FC4000021FFF747FB194B9A8B4FF6FF739A4298
:101FD40004D02846FFF76CFB06241DE001220024F0
:101FE40004AB43F8044D2846009231463A46FEF7C6
:101FF4004DFB20B92846FFF75BFB07240CE028467D
:10200400FFF7B6F801F02CF806E0012404E00224FE
:1020140002E0032400E00424204605B0F0BD00BF24
:10202400E509010828E7002024E70020F8E600205D
:102034000E4B0F4A9869126810B590421A4602D1A5
:102044009B8B3D2B04D0918BFFF764FF044610B9A2
:10205400084B186810BD054B586920B12146FEF79E
:1020640043FC204610BD204610BD00BFF8E600200A
:1020740028E7002024E70020431E70B506460D46DD
:10208400072B11D8DFE803F0040407070A0D0A0D33
:1020940001F110000DE0480010300AE08800103013
:1020A40007E0C800103004E04A20FFF739FC0020A4
:1020B40070BD8B21FEF724FE044620B93D20FFF7B6
:1020C4002FFC204670BD03681E739D6070BDF8B57B
:1020D400037804460F4623B9BDE8F8400079FFF7BA
:1020E400CBBF01F1080080008A21FEF709FE0646F5
:1020F40018B93D20FFF714FC06E00568AF600C3505
:102104000FCC0FC523682B603046F8BD134B70B558
:10211400422106461868FFF7FDFE0446E0B1026856
:10212400314612F8083C032043F0300302F8083C1F
:10213400FFF7A2FF054620B92046FEF7F3FD284627
:1021440070BD236813F8082C186122F030029E61D8
:1021540003F8082C204670BD70BD00BF28E700209E
:102164002DE9F341254E804674680F46D4B1336897
:1021740000221B684FF0FF35A2420FDA196841456F
:1021840004D11889B84201D1586834E0681C02D1DE
:10219400002908BF154601320C33EDE76B1C09D149
:1021A400610000E00821154800F065F808B9002036
:1021B40021E02546404639466A4602F04AFD002899
:1021C400F5D0BDF80200FFF7A1FF04460028EED0C9
:1021D400036868461B691968103102F06EFD002817
:1021E400E5D02046B36832685D431268531942F85B
:1021F40005801F815C6002B0BDE8F08118E7002013
:1022040030B589B003A90546FFF710FE9DF80C30E0
:10221400012B12D1144B01AA1B6801930C23ADF8B6
:10222400083004AB93E80300FFF74FFD044658B9A8
:102234002920FFF775FB204614E0032B04D04A2025
:10224400FFF76EFB00200DE02846FEF7CEFD0022CE
:10225400044620B93D20FFF763FB204602E02B68CB
:102264005A601A6009B030BD28E7002000230360DB
:1022740043608160704738B50D4604468168006844
:10228400694340B908468021FEF73AFD206028B131
:102294006560012038BDFEF74FFDF8E73D20FFF7EC
:1022A4003FFB002038BD08B500200CF091FABDE8D2
:1022B40008400CF005BC38B504464518AC4204D0BF
:1022C400FFF7F1FF04F8010BF8E738BD10B5044639
:1022D40000200CF07DFAE1B2BDE810400CF0DABB4E
:1022E40010B5044600200CF073FA2146BDE81040F6
:1022F4000CF0DABB38B5094C1022216805460EF003
:10230400C1FA40B12846616810220EF0BBFAB0FA57
:1023140080F0400938BD012038BD00BF2C040020E6
:1023240000B589B005480B2101AA07F019FE10B1C8
:1023340001A807F049FA09B05DF804FB7209010825
:1023440007B5FFF7FFFDC8B169460A2202F02AFD6E
:102354000C48FFF7C5FF6846FFF7C2FF0A20FFF7E6
:10236400B5FF00200CF034FA0CF0E6FB024600281E
:10237400F7D1012041F288310AF032FF49200BF0F5
:102384007DFD00BF7E09010873B50C460646C8B240
:10239400FFF79CFF200AFFF799FF0025A5420CD206
:1023A40030460DF10701012207F0D5FB30B19DF84D
:1023B4000700FFF78BFF0135F0E7012002B070BD85
:1023C4004840082310F0010F4FEA50001ABF80F470
:1023D400204080F0010080B2013BF3D1704770B51A
:1023E4000446461815464FF6FF70B44204D014F85C
:1023F400011BFFF7E5FFF8E7431B5842584170BD46
:102404002DE9F0418AB0FFF74EFF012842D10620A2
:10241400FFF75CFF02A80421FFF74DFF0DF1060052
:102424000221FFF748FF02A80421BDF80620FFF7A8
:10243400D6FF78B34FF6FF780620FFF747FFBDF8C5
:102444000A10C8EB0103D3F1000848EB0308B8F104
:10245400000F03D0BDF8084074B106E0BDF80800D1
:1024640007F08CFF0028F5D114E020460021FEF788
:1024740047FC0546E8B90DE0B8F1000F79D14546AF
:10248400BDF80A00D0B10021FEF73AFC044600284A
:1024940067D101E0002425461520FFF717FF14B18A
:1024A4002046FEF73FFC002D6AD02846FEF73AFC92
:1024B40066E0B8F1000FE3D0002402E0002D54D010
:1024C40004462E680CB1276800E027460620FFF773
:1024D400FDFE26B13046BDF80810FFF7ECFE0DF105
:1024E40006000221FFF7E7FE3046BDF80810BDF8EC
:1024F4000620FFF774FF0028CED00620FFF7E6FE83
:10250400B8F1000F1FD127B13846BDF80A10FFF704
:10251400D2FE0DF106000221FFF7CDFE3846BDF8CC
:102524000A10BDF80620FFF75AFF0028B4D0062091
:10253400FFF7CCFE3046BDF808103A46BDF80A3025
:1025440007F068FE09E03046BDF8081003AA07F05A
:1025540007FD20B103A807F033FE00289CD0062015
:102564009BE7002DADD12E46ADE72C462E462F46D7
:10257400ACE70620FFF7AAFE254627462646AEE727
:102584000AB0BDE8F0811FB5FFF78DFE02280446AE
:1025940003D01520FFF79AFE1EE00620FFF796FEF3
:1025A40002A80821FFF787FE0DF106002146FFF778
:1025B40082FEFFF778FE0328EBD102A80821BDF8BC
:1025C4000620FFF70CFF0028E3D00620FFF77EFE6D
:1025D400DDE902010AF002FC04B010BD10B50220CE
:1025E40096B0FFF773FE07F0A5FC04460090C0B256
:1025F400FFF76CFE9DF80100FFF768FE34B301A8F5
:1026040007F022FC01A807F02BFCF8B1049A124B46
:102614009A42F7D1114B9DF80D2008A953F82220B6
:102624000F4807F0E0F9029908A80C3107F06FFA97
:10263400BDF8161008A8FFF7A7FE08A8BDF81810E3
:10264400FFF7A2FE08A807F0C7FADBE70320FFF7AD
:102654003DFE16B010BD00BF785634122C04002085
:1026640078E7002000B502208DB0FFF72FFE1B484D
:1026740004A907F05AF9194804A907F05CF938B31A
:1026840001A90A22049802F08DFB01A8FFF728FE95
:102694002020FFF71BFE07A8FFF722FE2020FFF7EC
:1026A40015FE01A90A22069802F07CFB01A8FFF797
:1026B40017FE2020FFF70AFE01A90A220B9802F058
:1026C40071FB01A8FFF70CFE0A20FFF7FFFDD2E71C
:1026D4000320FFF7FBFD0DB05DF804FB78E7002055
:1026E40000B589B0FFF7DFFD6A46A0F130010A4862
:1026F40007F067F948B103A8FFF7FCFD18B90648CD
:1027040003A907F06BFA062000E01520FFF7DEFDB1
:1027140009B05DF804FB00BF78E7002000B589B07C
:102724000C48694607F001F90A48694607F003F9BD
:1027340048B103A8FFF7DEFD0028F5D103A9054839
:1027440007F04CFAECE70620FFF7C0FD09B05DF88E
:1027540004FB00BF78E70020F0B5A3B0FFF7A3FDAA
:1027640004AAA0F130011A4807F02BF970B3022033
:10277400FFF7ACFD164814A907AA07F034F90025A1
:102784000CAF14A83946202207F0E5F90646B8B183
:1027940015B10A20FFF79AFD0024385D01A9102223
:1027A40002F000FB9DF8053013B93020FFF78EFDD1
:1027B40001A80134FFF794FDB442EED12544DFE7CC
:1027C40014A807F009FA0320FFF780FD23B0F0BD39
:1027D40078E7002013B50220FFF778FD1A48FFF7C9
:1027E4007FFD1A4C14F8010D01A9102202F0DAFA47
:1027F4009DF8053013B93020FFF768FD01A8FFF7F5
:102804006FFD134B9C42EDD10A20FFF75FFD114889
:10281400FFF766FD104B1868FFF762FD0A20FFF70B
:1028240055FD0E48FFF75CFDFFF77AFD0C4B0D4A92
:10283400002814BF10461846FFF752FD0320FFF787
:1028440045FD02B010BD00BF97090108F4F7FF1F52
:10285400E8F7FF1F9C09010804000020A8090108EB
:10286400D6090108D80901082DE9F04391B000AF59
:102874000AF091FA05460BF09BFA002840F0128109
:102884000BF090FA0338012840F20C818D4B01249F
:10289400DB695E0540F101810DF012FB00200BF0B5
:1028A40097FF0CF0CAF80028C0F2EE8063381528B0
:1028B40000F2FF80DFE810F0BD00B600FD00C400A8
:1028C400D100D400E500FD00FD00FD00FD00FD0089
:1028D400B3001600FD00FD008300DB00FD00FD00D9
:1028E400FD00E200774BDB691D0540F1E280062024
:1028F400FFF7ECFCE946C0B06C460025FFF7D3FCBB
:10290400C0B260550135102D01D00028F6D16019F0
:102914000421FFF7D0FCB81D0221FFF7CCFC2046B0
:10292400291DFA88FFF75BFD08B9152043E054F828
:102934000580654807F108012246434607F07FF801
:102944000028F2D00620FFF7C1FC002646452DD210
:10295400C6EB0805B5F5807F28BF4FF48075204687
:102964002946FFF7A8FCB81D0221FFF7A4FC204666
:102974002946FA88FFF733FD38B91520FFF7A6FC7E
:1029840007F1080007F028F917E021462A4607F165
:10299400080007F04FF8FB692E44002B14BF1520E4
:1029A4000620FFF793FC0DF08BFACFE707F1080040
:1029B40007F012F90620FFF789FCCD4679E0FFF70E
:1029C40072FC0024FFF76FFCC0B20A28E5B206D0FF
:1029D40007F10803E0540134102CF3D1254607F124
:1029E40040031D44002305F8383CFFF799FC78B1F7
:1029F40007F1080002F0BFF928B10620FFF766FCD2
:102A040007F1080053E01520FFF760FC2F4803E0AE
:102A14001520FFF75BFC2E48FFF762FC49E0FFF747
:102A240021FE46E0274BDB691C0542D5FFF758FE23
:102A34003FE0244BDB6918053BD5FFF76FFE38E018
:102A4400204BDB69190534D507F0DCF9002814BFE5
:102A540006201520FFF73AFC2BE0FFF7BFFD28E026
:102A6400184BDB691A0524D5FFF7CAFC21E0154B86
:102A7400DB691B051DD5FFF786FD1AE0FFF76CFE29
:102A840017E0FFF7A7FE14E00AF085F9401BACB18C
:102A940040F6B83398427FF6FFAEFFF741FC0028BA
:102AA4003FF4FAAE0B4802F066F928B10948FFF783
:102AB40047FC0AF070F905460024EDE647F230536E
:102AC400E8E700BF0020024078E70020B8090108C9
:102AD400CE090108DE090108D0E90023134300D020
:102AE40030BF7047012070470F2817D8EFF31083C9
:102AF40072B60C490A5C01320A540B490A68013265
:102B04000A60DA0700D462B6EFF3108372B6074A9C
:102B14000021DB07516003D462B601E00020704756
:102B240001207047D0E00020E0E0002050060020A3
:102B340030B5EFF3108404F0010472B6094A136847
:102B44005BB10020084D415D21B10139013B29549D
:102B5400136004E001301028F4D14FF0FF3004B9C1
:102B640062B630BDE0E00020D0E00020EFF3108337
:102B740072B6044A1068003018BF0120DB0700D485
:102B840062B67047E0E00020F0B50C4B00221D78DF
:102B94008A4210DA50F822405CB1266816F8084CD4
:102BA40004F06807082F02BF44F0200406F8084C1C
:102BB40001250132ECE71D70F0BD00BFE4E0002008
:102BC400036893F83420920707D55A6A2AB11B6B1D
:102BD400D98C11B11068FFF7D7BF7047F8B5074615
:102BE4000E460024B44217DA57F8245095B128460B
:102BF400FEF738F870B12A6812F8083C03F068014F
:102C0400082901BF43F0200302F8083C034B0122CA
:102C140008BF1A700134E5E7F8BD00BFE4E0002006
:102C2400036813F8082C42F0400102F00B02092A51
:102C340003F8081C09D19A689989126803F11000F5
:102C4400526812F83110FFF7C9BF0A2A04D103F100
:102C540020009968FFF798BF7047F8B50468012110
:102C6400201DFFF791FF04F130000121FFF78CFFD5
:102C740004F148000421FFF787FF2368E3B11E68CD
:102C84007368591C01D13368F8E7B56835440C35CD
:102C94000833F41804F11400291A8910FFF79EFF71
:102CA4006368271D597AA7EB81052846FFF796FF2D
:102CB400E3685A1CECD1E6E70120F8BD0120704717
:102CC400F8B50546FDF7CAFC002104462948FEF77D
:102CD400D5F92948002102F035F8284E002328228E
:102CE400274868213370FEF79FF83278002AF4D120
:102CF400244B586818B9244B5E68BEB91CE01B68A5
:102D04001B68824203F10C03F5DA53F80C1C59B129
:102D140053F8081C096811F8081C01F0400101F07F
:102D2400FF0609B943F80C6C0132EAE71B6800217D
:102D34001A68043AB14207DB2846FEF78FF8C4B19B
:102D4400BDE8F840FDF7A0BC52F8043F7BB1186819
:102D5400476810F8083C27B143F0600300F8083CCA
:102D640005E003F0400303F0FF0003B910600131F4
:102D7400E0E7F8BD5F2C0008C52B0008E4E0002064
:102D8400252C000818E70020ECE600200B4A10B5BB
:102D940012694388D26814684278123254F82220A7
:102DA400126819B1012906D1526A00E0126A10684A
:102DB40000EB830010BD002010BD00BFF8E600202A
:102DC400F0B56FF00305324B4D431A6887B0525982
:102DD4000446002A0E461F4602DA3820FEF7A0FDFC
:102DE4003B685F59237B012B06D1227822B92079D5
:102DF4003946FFF741F948E0013BDBB2237302ADEA
:102E04004BB9234613F8042B93E803008DF80420F0
:102E140085E8030006E003238DF8043094E80F00EE
:102E240085E80F0001A83946FFF751F9013E16F075
:102E3400FF06054625D0026812F8083C43F030032B
:102E440002F8083CB7B120463146FFF7B9FF50B944
:102E54002A6812F8083C23F0300302F8083C237B6C
:102E64000133237311E02B68013F07F1080243F893
:102E74002200E7E72A6812F8083C23F0300302F83E
:102E8400083C2846237B0133237307B0F0BD00BF01
:102E9400F8E600202DE9F047534C0746666986B0F2
:102EA4003268936AD80606D56369002B00F09480D3
:102EB400FDF7C0FCF8E743F0080393622FB939200B
:102EC400FEF72EFDFFF7B4F8074622691368D97A96
:102ED400890605D4FDF7AEFC60690028F5D156E0FB
:102EE400D268D3F80090D2F800A03F4BDAF8305003
:102EF4005B684FF000085D1BC9EB0505ADB21FFA16
:102F040088F30A2203FB0222DAF83030C2EB09020A
:102F140013441868596803AA03C21B891380BDF8B7
:102F24000C30AB422CD2BDF80E30AB4228D34FF656
:102F3400FF73BDF812209A4215D14FF6FF70FEF7C9
:102F4400EFFC23691F6103F11402BDF81030226005
:102F54009944DAF830304B4463603268936A23F062
:102F6400080393623CE023693846DB6819689DF8DE
:102F74001430123351F82310FEF7BFFF0028DCD1C0
:102F84009DF8153008F10108002BB8D1A2E732688A
:102F94000146936A23F008039362FEF75BFB030781
:102FA40001D54A201AE0012206AB43F8107D0092B5
:102FB4000E4A3046116840F27D32FDF767FB18B9BE
:102FC4003046FEF775FB07E032683046936A43F0FB
:102FD40010039362FEF7CCF84FF6FF70FEF7A0FCE7
:102FE40006B0BDE8F08700BFF8E6002028E700201F
:102FF40010B543789A09032A0A701CD1827803F029
:103004003F03092B0A7411D1144AC378126906309C
:10301400D268146803F03F02123254F822209B094C
:103024008A6030F8022C0B718A8110BD00220A716B
:103034000B72033010BD12B90B71023010BD074A78
:1030440003F03F0312691233D2680430126852F855
:1030540023304B6030F8023C0B8110BDF8E60020B1
:103064002DE9F04FB24BDFF8D092D1B04FF0000809
:1030740093E870002B7859F8233043F00103184784
:10308400AB4F87E87000FDF7D5FB97E87000A84FB9
:103094007B6943B987E87000FEF7B2FB002841F072
:1030A400998001F053BD2B7859F823F0A04F87E89D
:1030B4007000FEF7BDFF00F04EBD9D4B9E60FDF716
:1030C400A9FB9B4F7B691B681B681A683B699B685B
:1030D400591C06D187E87000FDF7B3FB97E8700030
:1030E4000EE0536002F10C0108331344711A91602D
:1030F4001A1D5B683A6134465E7A5568A2EB86060F
:103104002B7859F823F08A4B9E60FDF783FB211F2F
:1031140054F8047C864C63691B681B681A6823692D
:103124009B68581C06D184E86200FDF78AFB94E88A
:1031340062000EE0536002F10C010833711A13446B
:1031440091601A1D5B68226131465E7A5568A2EB74
:1031540086060C1D0F602B7859F823F0744B9E6083
:10316400FDF758FB54E902AB714FA4F108017B69E8
:103174003A691B681B68186893685A1C06D187E86B
:103184006200FDF75EFB97E870000EE0436000F11B
:103194000C020833B21A034482601A1D5B683A6158
:1031A40034465E7A5568A2EB8606E4E802AB2B78D7
:1031B40059F823F05E4F68883B690435DB681A6868
:1031C40015F8033C3C60123352F823307D60BE6036
:1031D4001B689B6A28E0564B03351B69DB684493E4
:1031E40035F8023CADF81431449BBDF814211B683A
:1031F4000C211B6901FB02334393DDF80CA14C4FF6
:103204009AF80BC00CF0100303F0FF007BB1DAF85E
:103214000000449B1A6883B287E87000123352F8A6
:103224002330000C1B689B6A984700F0C4BF7B697D
:103234003A691B68D3F800E0DEF8003003F10C01B2
:10324400611A996055603861DEF800E09AF809B0B7
:103254009AF808005EF808EC4FEA8B0B9AF80A20FB
:103264000BEB8000CEF3172E92001030AEF1140E4B
:10327400801AC1EB0E01884213D99108CDF814C00D
:10328400029287E87000FDF7A5F9029ADDF814C0F0
:1032940018B9FDF7F9F900F08EBF7B691B681B684C
:1032A4001B689C68224F5C44A21A02F1080119446D
:1032B400C1F804A00E1D44991CF0010FF1600968C7
:1032C4000D6BDAF800100D4459687560B1605A60EE
:1032D40002F110011A44996002F11C043E61CBEB27
:1032E40006060FD1134B5B68002B07DC104F01203F
:1032F40087E87000FEF796F800F05DBF2B7859F868
:1033040023F0C4E6604687E87000FDF749F900F051
:1033140050BF6B880435ADF81431054B1B69DB686D
:103324001A6815F8033C123352F8233044935BE7D0
:10333400F8E600205006002008000020E84B033582
:103344001B69DB68449335F8023CADF81431449BA7
:10335400BDF814211B680C211B6901FB02339A7A06
:1033640043936FF003035343E358002B7FF445AFBB
:1033740039207AE000222260043415F8013F59F81C
:1033840023F001222260043415F8013F59F823F098
:1033940002222260043415F8013F59F823F0032275
:1033A4002260043415F8013F59F823F00422226006
:1033B400144415F8013F59F823F00522226004341F
:1033C40015F8013F59F823F04FF0FF32226004341E
:1033D40015F8013F59F823F0043C54F8042C2368F1
:1033E400134444F8043C15F8013F59F823F0043C15
:1033F40054F8043C22689B1A44F8043C15F8013F35
:1034040059F823F0043C54F8042C2368534344F83B
:10341400043C15F8013F59F823F0043C54F8042CFB
:103424002368134344F8043C15F8013F59F823F08A
:10343400043C54F8042C2368134044F8043C15F865
:10344400013F59F823F0043C54F8042C23685340FA
:1034540044F8043C15F8013F59F823F054F8042DBE
:10346400002A40F07C8301352020FEF759FA1DE63E
:103474006B880435ADF81431994B1B69DB681A6805
:1034840015F8033C123352F8233044935FE715F8E0
:10349400018FA4EB880353F8043CB5F801A003356D
:1034A400002B3FF465AF186810F8083C03F00B03D9
:1034B400092B38D1B0F80CC0DFF828E28AEA0C07EF
:1034C40007F03F0114274F430EEB0702138A00F164
:1034D400080B534573460CD15EF807708068874229
:1034E40007D19088604504D1083244AB92E80300C8
:1034F40016E014274F439BE8030007F1080E5246D9
:103504007344FEF769FBA8B1764B1F44A7F810A0DB
:103514009BE8030087E8030044AB083797E80300FF
:1035240083E8030060E6504644A9FEF7FBFA00284E
:103534007FF45AAE4A20FEF7F3F9694B9A8B4FF6A3
:10354400FF739A427FF4B2ADA1E54FF00008A0E703
:103554004FF001089DE74FF002089AE74FF0030887
:1035640097E74FF0040894E74FF0050891E700F05F
:1035740068BE54F8043D002B40F0638615F8033F01
:1035840059F823F054F8043D002B00F05A8615F83E
:10359400033F59F823F054F8043D002B00F0518602
:1035A40015F8033F59F823F054F8043D002B80F23A
:1035B400488615F8033F59F823F054F8043D002BCE
:1035C40000F33F8615F8033F59F823F054F8043DFF
:1035D400002B40F3368615F8033F59F823F054F8CE
:1035E400043D002BC0F22D8615F8033F59F823F053
:1035F40054F8043D002B40F0248615F8033F59F895
:1036040023F054F8082D63689A4200F01A8615F8DE
:10361400033F59F823F054F8082D63689A4280F266
:10362400108615F8033F59F823F054F8082D636801
:103634009A4200F3068615F8033F59F823F054F82C
:10364400082D63689A4240F3FC8515F8033F59F846
:1036540023F054F8082D63689A42C0F2F28515F8F5
:10366400033F59F823F054F8082D63689A4240F058
:10367400E88515F8033F59F823F054F8082D6368DA
:103684009A4200F0DE8515F8033F59F823F054F808
:10369400082D63689A4240F0D48515F8033F59F821
:1036A40023F0D5F80130C3F3072256F82210A9B14C
:1036B4000868DAB256F8221082689142C0F2C680D5
:1036C40015F8053F59F823F03268D5F80130116830
:1036D400C3F30722043251F8221029B9053547E60D
:1036E400F8E60020E8E000200868DAB256F8221074
:1036F40082689142C0F2AA8015F8053F59F823F078
:10370400D5F801303268D9B21068C3F30722043205
:1037140056F8211050F822209142C0F2978015F8F3
:10372400053F59F823F0D5F801303268D9B2106852
:10373400C3F30722043256F8211050F82220914294
:1037440040F3848015F8053F59F823F0D5F801308B
:103754003268D9B21068C3F30722043256F8211034
:1037640050F82220914271DC15F8053F59F823F0F6
:10377400D5F801303268D9B21068C3F30722043295
:1037840056F8211050F8222091425FDA15F8053FCF
:1037940059F823F0D5F801303268D9B21068C3F370
:1037A4000722043256F8211050F8222091424DD0BD
:1037B40015F8053F59F823F0D5F801303268D9B22D
:1037C4001068C3F30722043256F8211050F822205F
:1037D40091423BD115F8053F59F823F0D5F8013053
:1037E400D9B2C3F3072256F8211056F82220914289
:1037F4002CDB15F8053F59F823F0D5F80130D9B280
:10380400C3F3072256F8211056F8222091421DDDF9
:1038140015F8053F59F823F0D5F80130D9B2C3F3B0
:10382400072256F8211056F8222091420ED015F89E
:10383400053F59F823F0D5F80130D9B2C3F3072274
:1038440056F8211056F82220914202D005EB234568
:1038540048E515F8053F59F823F06A78B5F90230C0
:1038640056F822100B4446F8223015F8043F59F854
:1038740023F06A7895F9023056F822100B4446F882
:10388400223015F8033F59F823F06A7856F82230AD
:10389400013346F8223015F8023F59F823F06A78CC
:1038A40056F82230013B46F8223015F8023F59F809
:1038B40023F022466B78190956F8211003F00F0300
:1038C40044F8081B56F82330536015F8023F59F8A2
:1038D40023F023466A78043456F822201A6015F837
:1038E400023F59F823F03268043444F8042C15F8E4
:1038F400013F59F823F07268043444F8042C15F895
:10390400013F59F823F0B268043444F8042C15F844
:10391400013F59F823F0F268043444F8042C15F8F4
:10392400013F59F823F03269043444F8042C15F8A3
:10393400013F59F823F07269043444F8042C15F853
:10394400013F59F823F0B269043444F8042C15F803
:10395400013F59F823F0F269043444F8042C15F8B3
:10396400013F59F823F0326A043444F8042C15F862
:10397400013F59F823F0726A043444F8042C15F812
:10398400013F59F823F06B7806EB8303D3E9002356
:10399400E4E8022315F8023F59F823F06B7854F851
:1039A400042D46F8232015F8023F59F823F054F863
:1039B400043D336015F8013F59F823F054F8043DF1
:1039C400736015F8013F59F823F054F8043DB360CF
:1039D40015F8013F59F823F054F8043DF36015F845
:1039E400013F59F823F054F8043D336115F8013FC1
:1039F40059F823F054F8043D736115F8013F59F860
:103A040023F054F8043DB36115F8013F59F823F04D
:103A140054F8043DF36115F8013F59F823F054F8C4
:103A2400043D336215F8013F59F823F054F8043D7E
:103A3400736215F8013F59F823F06B7874E90201B9
:103A440006EB8303C3E9000115F8023F59F823F09C
:103A540054F8043C44F8043B15F8013F59F823F0AA
:103A640054F8083C083444F8083C54F80C3C44F836
:103A7400043C15F8013F59F823F054F8043C54F879
:103A8400082C236044F8042C44F8083C043415F84A
:103A9400013F59F823F054F8082C54F8043C44F836
:103AA400042C54F80C2C236044F8082C44F80C3CE7
:103AB400043415F8013F59F823F054F8042C54F851
:103AC400083C54F80C1C6260236044F8041C44F85D
:103AD400082C44F80C3C083415F8013F59F823F03D
:103AE40054F80C1C54F8042C54F8083C44F8041CF6
:103AF40054F8101C6260236044F8081C44F80C2C31
:103B040044F8103C083415F8013F59F823F015F82F
:103B1400013F59F823F000222260043415F8013FD4
:103B240059F823F0043C15F8013F59F823F0083CF8
:103B340015F8013F59F823F054F8083C44F8043CC4
:103B440015F8013F59F823F0CC4F01353C607D60F6
:103B5400BE6054F8040CFFF79DF9FFF796BA54F8C9
:103B6400043C93FBF2F344F8043C15F8013F59F884
:103B740023F054F8043D002B3FF475AC54F8041CB6
:103B840091FBF3F203FB121344F8043C15F8013FD4
:103B940059F823F054F8042D54F8043C02F01F02A1
:103BA400934044F8043C15F8013F59F823F054F8C5
:103BB400042D54F8043C02F01F02134144F8043C61
:103BC40015F8013F59F823F054F8042D54F8043C37
:103BD40002F01F02D34044F8043C15F8013F59F8A1
:103BE40023F054F8043C5B4244F8043C15F8013FCC
:103BF40059F823F0234695F9012004341A6015F886
:103C0400023F59F823F02346B5F9012004341A6021
:103C140015F8033F59F823F0D5F80120043444F88B
:103C2400042C15F8053F59F823F0D5F80120D5F8F0
:103C3400053084E80C00083415F8093F59F823F0DE
:103C4400284646A9FFF7D4F98C4F786046A83C6013
:103C5400BE60FDF7D7FE0AE0884FB5F801103B6956
:103C64000335D8683C607D60BE60FEF779FA97E85A
:103C7400700000283FF41AAA206012E2224633683A
:103C8400043419686B78043351F82330136015F841
:103C9400023F59F823F0234632680434126812694B
:103CA4001A6015F8013F59F823F0234632680434AA
:103CB400126852691A6015F8013F59F823F0234637
:103CC40032680434126892691A6015F8013F59F891
:103CD40023F02346326804341268D2691A6015F856
:103CE400013F59F823F02346326804341268126AFB
:103CF4001A6015F8013F59F823F02346326804345A
:103D04001268526A1A6015F8013F59F823F054F802
:103D1400042C6B780235002A3FF42AAB1268043372
:103D240052F8233044F8043C2B7859F823F03368D4
:103D34006A781B6803EB8203D3E90423E4E80223D3
:103D440015F8023F59F823F054F8042D6978023528
:103D5400002A3FF40DAB136803EB8103D3E904237A
:103D6400E4E802232B7859F823F0221F52F8042C9C
:103D74006B7854F8041C0235083C002A3FF4F8AA76
:103D84001268043342F823102B7859F823F054F8BE
:103D94000C2C6F7854E9020102350C3C002A3FF4E4
:103DA400E7AA136803EB8703C3E904012B7859F8E6
:103DB40023F028460021FEF7E9FF54F8043D036090
:103DC40015F8043F59F823F028460021FEF7DEFFDA
:103DD40074E90223C0E9002315F8043F59F823F0DD
:103DE40028460021FEF7D2FF2746036804343B60CF
:103DF40015F8043F59F823F028460021FEF7C6FFC2
:103E0400D0E90023E4E8022315F8043F59F823F02D
:103E140028460121FEF7BAFF54F8043D036015F863
:103E2400043F59F823F028460121FEF7AFFF274647
:103E3400036804343B6015F8043F59F823F0013556
:103E4400FFF796BA54F8043C002B3FF491AA1B6880
:103E54009B6844F8043C15F8013F59F823F0FFE748
:103E6400043C54F8042C002AE9D023681268002B7F
:103E740006DA01352120FFF7F8BA00BFF8E6002082
:103E840091688B42F5DA043352F8233044F8043C49
:103E940015F8013F59F823F0043C54F8042C002A87
:103EA400CDD023681268002BE3DB91688B42E0DA03
:103EB400134493F9103044F8043C15F8013F59F8C1
:103EC40023F0043C54F8042C002AB8D02368126868
:103ED400002BCEDB91688B42CBDA083332F81330F7
:103EE40044F8043C15F8013F59F823F0043C54F815
:103EF400042C002AA3D023681268002BB9DB916834
:103F04008B42B6DA083332F9133044F8043C15F81E
:103F1400013F59F823F0043C54F8042C002A8ED0B5
:103F240023681268002BA4DB91688B42A1DA083362
:103F340052F8233044F8043C15F8013F59F823F0B3
:103F4400FFE754F8083CA4F10801002B3FF477AFD5
:103F540054F8042C1B68002A8BDB9868824288DAA8
:103F640003EBC203D3E90423C1E9002315F8013F9D
:103F740059F823F0FFE754F80C2D002A3FF45FAF03
:103F840063681268002BFFF674AF91688B42BFF62A
:103F940070AFA168043342F8231015F8013F59F8B3
:103FA40023F054F80C2D002A3FF449AF63681268DB
:103FB400002BFFF65EAF91688B42BFF65AAF1344F5
:103FC400A2681A7415F8013F59F823F0FFE754F872
:103FD4000C2D002A3FF433AF63681268002BFFF600
:103FE40048AF91688B42BFF644AFA168083322F80A
:103FF400131015F8013F59F823F054F80C3D002B29
:104004003FF41DAF6768D3F800A0002FFFF631AF6F
:10401400DAF808309F42BFF62CAFD4F808B00AF1A2
:104024000C015846FDF75AFF38B108374AF827B053
:1040340015F8013F59F823F002E0222000F057BDA3
:1040440054F8103D002B3FF4FAAE6068196800285C
:10405400FFF60FAF8B689842BFF60BAFD4E902238B
:1040640001EBC001C1E9042315F8013F59F823F01D
:10407400794F69883B690435DB681A6815F8033C95
:104084003C60123352F823007D60BE60FDF742FFAE
:1040940097E8700000283FF409A82060B8F1000FE9
:1040A40002D10434FFF71EB960600834FFF71AB96F
:1040B4004FF00108DCE74FF00008D9E754F8043C5E
:1040C4006878002B05F1020510DB634F87E8700068
:1040D40054F8041CFDF7D0FF13E0284646A9FEF768
:1040E40087FF54F8043C0546002B02DA3820FFF71A
:1040F400BCB9594F46A887E8700054F8041CFDF772
:10410400E6FF97E8700000283EF4D0AF44F8040CB2
:10411400FFF7E8B8284646A9FEF76AFF4E4F10F8A5
:1041240001AB3C607860514647A8BE60FEF748FE8C
:1041340097E8700000283EF4B9AFA4EB8A0A0AF1AC
:104144000404CAF80000FFF7CDB84FF0C0082846B1
:104154004BA954F8047CFEF74BFF4BA9054638469F
:10416400FDF7BCFEA4F1040A4FFA88F360B13F33B3
:1041740004D1003718BF0127CAF800702B7859F80A
:1041840023F04FF0C108E2E73F3302D1CAF8000040
:10419400F4E72820FDF7C4FB4FF0C008FEF786BF04
:1041A40054F8040D013500283FF4E2A82A4F87E8AB
:1041B4007000FCF7CFFE97E87000FFF7BEB954F823
:1041C400040D013500283FF4D3A8234F87E870007D
:1041D400FCF7D6FE97E870001F4B9A8B4FF6FF73DF
:1041E4009A427EF463AF2B7859F823F0FFF7A5B910
:1041F400691C54F8047D4A6805F10903002A07DDA7
:104204001868874201D15B681DE00833013AF5E77D
:104214000B6818E054F8043DD5F80520D5F80910CA
:10422400934201DB8B4202DDD5F801300BE09B1A8F
:1042340005EB8303D3F80D3005E02346EA1C043470
:104244001A60B5F901301D44FFF74CB86B7856F885
:104254002350FFF747B800BFF8E6002014F9043CE8
:1042640044F8043C15F8013F59F823F034F9043CB0
:1042740044F8043C15F8013F59F823F034F8043CA1
:1042840044F8043C15F8013F59F823F0043454F879
:10429400082CD31744E9022315F8013F59F823F0F9
:1042A400043C15F8013F59F823F054F8043C06A8DF
:1042B4007149069301F0A0FD6F4846A901F0F6FB91
:1042C400469B44F8043C15F8013F59F823F054F890
:1042D400043C07A86849079301F05EFB664846A9B9
:1042E400664A01F06DFE469B44F8043C15F8013F14
:1042F40059F823F0043454F8083C08A85E4908939C
:1043040001F04AFB5D4A5C4846A901F0D7FD46AB83
:10431400D3E9002344E9022315F8013F59F823F0B7
:10432400043454F8083C09A85349099301F064FD86
:10433400514846A901F08AFB46ABD3E9002344E97E
:10434400022315F8013F59F823F050A854E9022339
:10435400494960E9362301F07BFD474846A901F04D
:10436400A5FB469B043C44F8043C15F8013F59F86E
:1043740023F050A854E902233F4960E9342301F0B3
:1043840067FD3D4846A901F061FB46ABD3E9002334
:1043940044E9022315F8013F59F823F0043454F892
:1043A400083CC3F3C751FF290A93C3F316024FEA2B
:1043B400D3730CD142B900220BB9314B00E0314B1D
:1043C40046A9C1E9002313E000222F4BF8E739B9CD
:1043D40032B900220BB90023F2E74FF00043EFE7B4
:1043E4000AA8254901F0D8FA234846A901F02EFB72
:1043F40046ABD3E9002344E9022315F8013F59F8F9
:1044040023F04FF0FF3A54E902230AEA0200CDE90F
:104414001E2340F2FF72DFF87CB0A4F108070BEA18
:104424000301CDE9020116491940090D009100214B
:104434000191D90F0023DDE900AB9B4508BF9245EC
:104444000CD1DDE90223134306D111B94FF0FF4328
:1044540000E00E4B469327E00D4BFBE7DDE900231C
:10446400134319D1DDE90223134315D109B9469148
:104474001AE04FF00043EDE73EE7002050E700204C
:104484000000F07F0000F0FF0000F87F000080FFD4
:104494000000C07FFFFF0F001EA8684901F014FA56
:1044A400664846A901F002FB469B043C3B6015F8B4
:1044B400013F59F823F050A854E902235F4960E909
:1044C400302301F001FA5D4846A95D4A01F078FD08
:1044D400469B043C44F8043C15F8013F59F823F08A
:1044E40050A854E90223554960E92E2301F0ECF960
:1044F400534A524846A901F0E1FC46ABD3E90023F4
:1045040044E9022315F8013F59F823F0002200235F
:10451400E4E8022315F8013F59F823F001220023AF
:10452400E4E8022315F8013F59F823F0083C54E964
:104534000201D4E9002312184B4144E9022315F87F
:10454400013F59F823F0083C54E90223D4E900015F
:10455400121A63EB010344E9022315F8013F59F8E9
:1045640023F0083C54E90223D4E9000102400B4043
:1045740044E9022315F8013F59F823F0083C54E9B3
:104584000223D4E9000102430B4344E9022315F852
:10459400013F59F823F0083C54E90223D4E900010F
:1045A40042404B4044E9022315F8013F59F823F0F7
:1045B400083C54F8083C606854F8041C58432268CA
:1045C40002FB0101A3FB02230B4444E9022315F877
:1045D400013F59F823F074E9022352EA03013EF43F
:1045E40042AF54E902010AF0A9FD44E9020115F8B9
:1045F400013F59F823F074E9022352EA03013EF41F
:1046040032AF54E902010AF099FD44E9022315F896
:10461400013F59F823F0A4F1100754E90401D7E944
:104624000223994208BF90420CD0904271EB0303DD
:10463400B4BF4FF0FF33012305E000BF3EE7002085
:1046440050E7002000233C1D3B6015F8013F59F85A
:1046540023F054E90223524263EB430344E9022367
:1046640015F8013F59F823F054F8042D54E90201D8
:1046740002F03F020CF0AAF844E9020115F8013FE8
:1046840059F823F054F8042D54E9020102F03F02D2
:104694000CF08EF844E9020115F8013F59F823F0B3
:1046A40054F8042D54E9020102F03F020CF074F8AE
:1046B40044E9020115F8013F59F823F00022226071
:1046C400043415F8013F59F823F04FF07E5222606C
:1046D400043415F8013F59F823F04FF0804222606A
:1046E400043415F8013F59F823F0043C54F8043C11
:1046F4000BA80B932368B6490C9301F04DF90CA851
:10470400B44901F049F9B248B249B34A01F0A6F8F4
:10471400B1480BA901F0CAF90B9B44F8043C15F805
:10472400013F59F823F0043C54F8043C0DA80D93C0
:104734002368A7490E9301F02FF90EA8A54901F0AB
:104744002BF9A448A249A44A01F052F8A2480DA9A1
:1047540001F0ACF90D9B44F8043C15F8013F59F8FD
:1047640023F0043C54F8043C0FA80F9323689849A1
:10477400109301F011F910A8964901F00DF994482D
:104784009449954A01F09EFA93480FA901F08EF9D5
:104794000F9B44F8043C15F8013F59F823F0043CFE
:1047A40054F8043C11A8119323688949129301F029
:1047B400F3F812A8874901F0EFF886488449864A3D
:1047C40001F0E8F9844811A901F070F9119B44F84B
:1047D400043C15F8013F59F823F0043C54F8043C18
:1047E40013A8139323687A49149301F0D5F814A8F5
:1047F400784901F0D1F877487549774A01F0C6FC49
:10480400754813A901F052F9139B44F8043C15F8B8
:10481400013F59F823F0043C54F8043C15A81593BF
:1048240023686B49169301F0B7F816A8694901F09B
:10483400B3F86748674901F067F910F1020F08BF40
:10484400012044F8040C15F8013F59F823F0043C06
:1048540054F8043C17A8179323685D49189301F092
:104864009BF818A85B4901F097F85948594901F099
:104874004BF910F1020F08BF4FF0FF3044F8040C5D
:1048840015F8013F59F823F054F8043C50AF47F8A9
:10489400DC3D4F49384601F07FF84D4800F093FE67
:1048A4004B48394601F002F9199B44F8043C15F8C9
:1048B400013F59F823F000220023E4E8022315F80D
:1048C400013F59F823F0454B0022E4E8022315F890
:1048D400013F59F823F0083C54E90223CDE924238D
:1048E40024A83B49D4E90023CDE9262300F0ECFFBA
:1048F40026A8384900F0E8FF374A3548354900F022
:10490400ADFF354824A901F0A1F8DDE9242344E9E9
:10491400022315F8013F59F823F0083C54E9022317
:10492400CDE9282328A82A49D4E90023CDE92A235C
:1049340000F0CAFF2AA8274900F0C6FF264A2548E6
:10494400234900F055FF244828A901F07FF8DDE948
:10495400282344E9022315F8013F59F823F0083CC1
:1049640054E90223CDE92C232CA81949D4E90023C6
:10497400CDE92E2300F0A8FF2EA8164900F0A4FFCD
:10498400154A1348134901F09DF913482CA901F065
:104994005DF8DDE92C2344E9022315F8013F59F8B9
:1049A40023F0083C54E90223CDE9302330A8084918
:1049B400D4E90023CDE9322300F086FF32A805496B
:1049C40000F082FF044A0348014901F0E3F807E0DC
:1049D4003EE700202CE7002050E700200000F03FD5
:1049E4005C4830A901F032F8DDE9302344E90223C0
:1049F40015F8013F59F823F0083C54E90223CDE9A6
:104A0400342334A85449D4E90023CDE9362300F0F3
:104A14005BFF36A8514900F057FF4E4A4F484E49B4
:104A240001F0B4FB4B4834A901F010F8DDE934235C
:104A340044E9022315F8013F59F823F054E904230B
:104A4400CDE9382338A8444954E90223CDE93A236F
:104A540000F03AFF3AA8414900F036FF3E483F498A
:104A640001F052F810F1020F08BF01200C3C44F889
:104A7400040C15F8013F59F823F054E90423CDE957
:104A84003C233CA8344954E90223CDE93E2300F0F9
:104A94001BFF3EA8314900F017FF2F482F4901F0B2
:104AA40033F810F1020F08BF4FF0FF300C3C44F80C
:104AB400040C15F8013F59F823F050AF54E90223D0
:104AC40067E910232449384600F0FEFE224800F02E
:104AD4007AFD2148394600F0B9FF40ABD3E9002301
:104AE40044E9022315F8013F59F823F04A20FCF762
:104AF40017FF0135FEF7DABAF8E7F7E7F6E7F5E767
:104B0400F4E7F3E7F2E7F1E7F0E7EFE7EEE7EDE7E5
:104B1400ECE7EBE7EAE7E9E7E8E7E7E7E6E7E5E715
:104B2400E4E7E3E7E2E7E1E7E0E7DFE7DEE7DDE745
:104B3400DCE7DBE7DAE7D9E7D8E7D7E7D6E7D5E775
:104B4400D4E7D3E7D2E7D1E7D0E7CFE751B0BDE868
:104B5400F08F00BF50E700203EE700202CE7002044
:104B64004A20FCF7DDBE012070470000F0B5054681
:104B7400294F85B03C684CB12668284606F13601B9
:104B84000BF06EFE002843D0F46AF4E704A840F862
:104B94000C5D01F07BFC08B900203AE0039B802106
:104BA40093F8200013308000FCF7AAF8064600288A
:104BB400F2D005680199A864102205F136000BF0C3
:104BC4007AFE039B85F846402B63029BAB620BB9CC
:104BD400124BAB623B683E60EB6223B11B6893F8F7
:104BE40035300133DBB285F8353032680023106B81
:104BF40050F82310014442F823100133082BF7D155
:104C040092F83430304643F0020382F8343000E046
:104C1400204605B0F0BD00BFE8E50020654B000864
:104C240030B5036887B01B6801AC03EB011303F1D3
:104C34001005224618685968083303C2AB4214466B
:104C4400F7D1002301A88DF81430FFF78FFF07B0C8
:104C540030BD10B5036800205B6984B28C4204D275
:104C64001C88013002342344F7E7194631F8024B1B
:104C74000023538051601480A3421CD2C85C0009F5
:104C84000E2813D8DFE800F0080808080808080808
:104C9400121212120A0A0C00013302E0023300E07D
:104CA400033350889BB201305080E5E74A20FCF77B
:104CB40037FE002010BD012010BDF8B50026334694
:104CC400426804889C423AD915782C090E2C2FD8B6
:104CD400DFE804F008080808080808082E2E2E2E1D
:104CE4000F0F1D00B4B20133013221F814509BB2EE
:104CF40023E0547805F01F0504F03F04B7B204EB39
:104D04008515023321F817509BB2023215E054780E
:104D1400B7B204F03F04A40104EB053594780333DF
:104D240004F03F042C4421F817409BB2033204E002
:104D34004A20FCF7F5FD0020F8BD0136C1E701204B
:104D4400F8BD000070B505460E46054B1C682CB135
:104D540020463146A8472368DC6AF8E770BD00BFE7
:104D6400E8E5002003681B6B588C4FF6FF73C01AEC
:104D740018BF0120704708B5FFF7F8FE18B1BDE869
:104D84000840FFF7EFBF08BD054B1B6833B11A6835
:104D940092F83510814201D0D36AF7E7184670477C
:104DA400E8E5002030B50346901E222889B04FF074
:104DB400000401D90C701BE0B3FBF2F002FB1033CA
:104DC400092B04F1010494BF30333733DBB20DEB0C
:104DD400040505F8013C03460028EDD123464A1E8C
:104DE400013B1DF8030002F8010F002BF8D10B550D
:104DF400084609B030BD00F11203002220F8022B4E
:104E04009842FAD17047831C1230002223F8022BF7
:104E14008342FAD17047002330F8132021F813207D
:104E24000133082BF8D100230B82704710B5031D02
:104E34000431123033F8024B31F8022B944203D17F
:104E44008342F7D1002010BD94BF4FF0FF30012002
:104E540010BD811C0022103031F8023F13F0010F05
:104E640018BF42F0010212F0020F4FEA53031CBFB5
:104E74006FEA43436FEA5343520081420B8092B27C
:104E8400EAD1704700F112010022043031F8023DEA
:104E940013F4004F18BF42F001025B0012F0020F3E
:104EA4009BB218BF43F00103520081420B8092B2BF
:104EB400ECD1704710B5031D00221230198842EA64
:104EC400112223F8022B0C02834204F47F42F5D111
:104ED40010BD00F1100300220230198842EA0122B9
:104EE40023F8022983424FEA1122F6D17047031DA9
:104EF40000F1100233F8021F934223F8021CF9D187
:104F040000230382704710B500F1100300F1120270
:104F1400011D33F8024D8B4222F8024DF9D10023D2
:104F2400838010BD10B501F110031230023100244A
:104F340030F8022D14441A88224423F802298B42A3
:104F4400C2F30044F4D110BD30B501F110021230A7
:104F540002310024138830F8025D5B1B1B1B22F80E
:104F640002398A42C3F30044F4D130BDF0B50023C2
:104F740087B0ADF81230ADF8143010310DF11203D2
:104F84000DF1060731F802495CB144435D88A6B2CD
:104F94002E441D885E8005EB144404EB16441C80EB
:104FA400240C23F8024C023BBB42EBD1022301A99F
:104FB40031F8131022F813100133092BF7D107B07D
:104FC400F0BD2DE9F0470D4607468AB000211222B4
:104FD40068460BF03DFC2B880AAEADF800306B88B8
:104FE400284626F8263DFFF734FFB7F806800DF172
:104FF4001009C8EB084AEB88AC88394603EB044433
:10500400A2452ABFB4FBF8F44FF6FF74A4B22046BD
:1050140005AAFFF7ABFF05A82946FFF707FF0028FD
:1050240012DD384605A9FFF78FFF05A82946FFF7CB
:10503400FDFE002802DC013CA4B205E0023C384637
:1050440005A9A4B2FFF780FF05A82946FFF77CFF56
:1050540026F8024F2846FFF74AFF4E45CBD12B1DB9
:1050640005F11202002033F8021B934240EA0100CA
:10507400F9D1003018BF012000233DF8132025F892
:1050840013200133092BF8D10AB0BDE8F0872DE9CC
:10509400F0410E468AB005AD07460021284612228B
:1050A4000BF0D6FB3388ADF814307388ADF81630A6
:1050B4000223002425F813400133092BF9D107F109
:1050C4001008043738F8020938B131466A46FFF748
:1050D4004DFF68462946FFF725FFBDF824302846D2
:1050E4001C43FFF710FFB845ECD1002335F813201B
:1050F40026F813200133092BF8D120460AB0BDE865
:10510400F08147F6FF724388C3F30E03934208D13C
:10511400021D00F1100332F8020F20B99A42FAD1AD
:105124007047002070470120704738B584880546D1
:1051340004BBB0F90630002B2EDBEB8833B92846CC
:105144001034FFF7D4FE602CF7D125E0EB8803F48C
:105154007F4353B92846FFF7BCFE0834F6E72846D8
:105164000134FFF78FFE602C16DCB5F90630002BF6
:10517400F5DA11E014F47F440BD0FFF79BFE6FF0D7
:10518400070406E02846013CFFF763FE14F1510FC3
:1051940002D0AB88002BF5D1204638BD2DE9F04173
:1051A4000C1E054644D001DB264628E06742B8467B
:1051B4000026B8F10F0F07DD2B8A28461E43A8F1FD
:1051C4001008FFF7A0FEF4E739096FF00F03594305
:1051D4000C1B2746072F06DD2B7C28461E43083F61
:1051E400FFF768FEF6E704F0070424B32B8A284689
:1051F40003F001031E43013CFFF72BFEF5E70F2EDE
:1052040004DD2846FFF773FE103EF8E704F00F04B0
:105214002646072E04DD2846FFF75BFE083EF8E726
:1052240004F0070424B12846FFF72CFE013CF9E7FB
:105234000020BDE8F081002EFAD00120BDE8F08105
:105244002DE9F04F044689B000928A4612220021CB
:1052540003A81E460BF0FCFA2046FFF766FF502811
:1052640003DD2046FFF7CFFDAAE0361A0AD516F172
:10527400500FF6DB20463146FFF790FF002818BF99
:105284004FF0010A129B002B00F084804E4B1A68E9
:10529400994601322AD003A8FFF7ADFDD9F80010D2
:1052A400182909D035290FD0072501224FF4004BC6
:1052B4004FF6FF7808270FE004254FF480724FF073
:1052C400800B4FF0FF0806E040F2FF7806254FF40C
:1052D40000624FF4806B2F4608AB03EB4500002EB1
:1052E40020F8142C13DC502907D110E00025002EDF
:1052F4002A46AB46A8462F4609DC218A204601F0FF
:10530400010101924AEA010AFFF7A3FD019AD9F8C3
:10531400001034F817004FEA470E4F2904EB0E0C27
:1053240008EA00000EDC614604F11007B94209D016
:1053340031F8023F0BB140F001004FF0000CA1F82E
:1053440000C0F3E734F80E1010EA0B0F21EA080846
:1053540024F80E800FD0584509D1BAF1000F04D1BA
:1053640034F815301A4206D001E0009B1BB903A89B
:105374002146FFF7D7FD002E06DCD9F80030502B6C
:1053840002D02046FFF77EFDA3881BB12046FFF71D
:1053940060FD01360023238247F6FE739E420BDD37
:1053A400234647F6FF720E3423F8022F002223F817
:1053B400022FA342FAD103E0002EB8BF0026668074
:1053C40009B0BDE8F08F00BF0804002070B50646A0
:1053D4000C46FFF796FE28B1002323804FF6C073D6
:1053E400638070BD60803388002B18BF4FF4004386
:1053F40063807588FE2D04D943F4FF4363802080C5
:1054040070BD15B93046072103E03046ED01ADB259
:105414000821FFF7C3FEB38803F07F031D436388AD
:105424001D436580F388238070BD70B505460C4626
:10543400FFF767FE38B1002323806380A3804FF613
:10544400C073E38070BD40F2FE72E0802B88002BB5
:1054540018BF4FF40043E3806E88964208D943F4A2
:10546400FF4343F07003E380A0806080208070BD20
:1054740016B92846042103E028463601B6B20521B0
:10548400FFF78CFEAB8803F00F031E43E3881E4333
:10549400E680EB88A3802B8963806B89238070BDB1
:1054A400352908D002DC18290DD07047502910D0B6
:1054B40090291AD0704700230380438083804FF6DD
:1054C400C073C3807047002303804FF6C0734380CA
:1054D40070470023038043808380C3804FF440439C
:1054E400038147F6FF734381704747F6FF72002339
:1054F40042804FF4404203808380C28000F108035D
:105504001230002223F8022B8342FAD1704700F1B3
:105514000C03002220F8022B9842FAD17047002392
:1055240030F8132021F813200133062BF8D17047EB
:1055340047F6FF724389C3F30E03934206D100F189
:105544000A0230F8023B1BB99042FAD1002070479E
:1055540001207047F8B5B0F90A308E1C002BB8BF93
:105564004FF6FF7347F6FF723446A8BF00230B8043
:1055740043890546C3F30E03934200F1080724F858
:10558400023B14D1FFF7D4FF48B100237380043DDC
:1055940037F80239AF4224F8023FF9D1F8BD06F1D9
:1055A4001003002224F8022B9C42FAD1F8BD0023F8
:1055B4007380851E37F80239AF4224F8023FF9D1CF
:1055C4000023F381F8BD10B50446FFF7B1FF18B905
:1055D400638983F40043638110BD10B50446FFF76B
:1055E400A7FF18B9B4F90A00C00F10BD002010BD00
:1055F40047F6FF7208B54389C3F30E03934205D1FE
:10560400FFF796FFB0FA80F0400908BD002008BDFE
:10561400034600F10A02002123F8021B9342FAD147
:1056240043896FEAD3336FEAC3334381704738B594
:10563400034633F8042B0C4608312AB142886FEA3A
:1056440042426FEA524200E04288628147F6FF72AA
:1056540033F8025C95420DD1FFF753FD28B1204683
:10566400BDE838405021FFF71BBF2046BDE8384055
:10567400FFF7CEBF981C8A1C0C3330F8021B9842EB
:1056840022F8021DF9D138BD2DE9F04192B005464A
:105694000C461746FFF7ACFF60B128463946FFF7C2
:1056A4003EFF524B1B68002B00F09C803846FFF7EE
:1056B4008AFF97E02046FFF79BFF20B1204639463A
:1056C400FFF72DFF8EE0284603A908ADFFF742FF40
:1056D40020462946FFF73EFF444B1A68984622B1FC
:1056E400BDF80C30DB43ADF80C30BDF82260BDF8DA
:1056F4000E40A41B002C0FDD28460DA9FFF78BFBE1
:1057040003A82946FFF787FB0DA803A9FFF783FB2E
:105714006442BDF8226000E008D014F1510F5DDB53
:10572400214603A8FFF73AFD04463DE003A82946B5
:10573400FFF77CFB00282AD1BDF80C20BDF82030EF
:105744009A4203D03846FFF7E2FE4BE03EB9BDF97A
:105754002630002B03DB2846FFF794FB3EE00123B1
:1057640035F813206AB147F6FE7301369E420BDD0D
:105774003846FFF7CCFE3846FFF74AFFBDF80C3039
:1057840091E70133082BEBD1ADF8226026E00BDD65
:1057940028460DA9FFF73FFB03A82946FFF73BFB6B
:1057A4000DA803A9FFF737FBBDF80C20BDF8203086
:1057B40003A89A42294603D1FFF7B4FB002302E071
:1057C400FFF7C2FB0123C8F80030402300932846AA
:1057D4002146D8F800203346FFF732FD28463946E3
:1057E400FFF725FF12B0BDE8F08100BFECE5002013
:1057F400F8B506460C461546FFF79AFE08B1304642
:1058040004E02046FFF794FE28B120462946BDE86F
:10581400F840FFF784BE3046FFF7EAFE90B1204619
:10582400FFF7E6FE70B13046FFF7D7FE0746204685
:10583400FFF7D3FE874205D12846BDE8F840502142
:10584400FFF72EBE044B01221A60304621462A4639
:10585400BDE8F840FFF718BFECE50020F8B50646B0
:105864000C461546FFF764FE08B1304604E02046B6
:10587400FFF75EFE28B120462946BDE8F840FFF751
:105884004EBE3046FFF7B4FE90B12046FFF7B0FE9F
:1058940070B13046FFF7A1FE07462046FFF79DFE94
:1058A400874205D02846BDE8F8405021FFF7F8BDEF
:1058B400044B00221A60304621462A46BDE8F840CF
:1058C400FFF7E2BEECE5002070B5044686B001A8FF
:1058D4000D46FFF790FAE18847F6F0708BB21A0490
:1058E4004CBF4FF6FF720022ADF8042047F6F07269
:1058F40003F00F030A4043F010038242ADF808306E
:1059040019D10B0705D1A3881BB963880BB9238868
:1059140023B128465021FFF7C3FD3BE02846FFF79B
:10592400F6FD2846FFF774FEBDF8043093B328460D
:10593400FFF749FE2EE011092AB923F01003ADF850
:105944000830012600E0002601F57053ADF806305A
:10595400A38801A8ADF80A3063886FF00401ADF89C
:105964000C302388ADF80E30FFF718FC76B101A88F
:10597400FFF7DBFB502803DD01A8FFF744FA05E03D
:10598400BDF806300133181AADF8060001A82946FF
:10599400FFF74DFE06B070BD70B5054686B001A890
:1059A4000C46FFF728FA6A8893B219044CBF4FF6E5
:1059B400FF710021ADF80410DBB202F4FF4143F0A3
:1059C4008003B1F5FF4FADF8083014D153062046DB
:1059D40001D12B881BB15021FFF762FD34E0FFF7A2
:1059E40096FD2046FFF714FEBDF8043063B320464D
:1059F400FFF7E9FD28E0CA0929B923F08003ADF8CF
:105A04000830012600E0002602F57E53ADF806308A
:105A14002B8801A86FF00701ADF80A30FFF7BEFB31
:105A240076B101A8FFF781FB502803DD01A8FFF739
:105A3400EAF905E0BDF806300133181AADF806009E
:105A440001A82146FFF7F3FD06B070BDF0B589B09B
:105A540005460C46FFF76CFD38B1002323806380B4
:105A6400A3804FF6C073E3801BE003A92846FFF729
:105A740071FD2846FFF7BCFDBDF80E70014660B904
:105A8400094D35232E682B604023009303A80A4652
:105A9400A7F57053FFF7D4FB2E6003A82146FFF748
:105AA400C4FC09B0F0BD00BF08040020F0B589B003
:105AB40005460C46FFF73CFD28B1002323804FF632
:105AC400C07363801BE003A92846FFF743FD284603
